{
  "contractName": "Ico",
  "abi": [
    {
      "inputs": [
        {
          "internalType": "contract Alphacointract",
          "name": "_token",
          "type": "address"
        }
      ],
      "payable": false,
      "stateMutability": "nonpayable",
      "type": "constructor"
    },
    {
      "anonymous": false,
      "inputs": [
        {
          "indexed": false,
          "internalType": "address",
          "name": "buyer",
          "type": "address"
        },
        {
          "indexed": false,
          "internalType": "uint256",
          "name": "_amount",
          "type": "uint256"
        }
      ],
      "name": "Sell",
      "type": "event"
    },
    {
      "constant": true,
      "inputs": [],
      "name": "token",
      "outputs": [
        {
          "internalType": "contract Alphacointract",
          "name": "",
          "type": "address"
        }
      ],
      "payable": false,
      "stateMutability": "view",
      "type": "function"
    },
    {
      "constant": true,
      "inputs": [],
      "name": "tokenPrice",
      "outputs": [
        {
          "internalType": "uint256",
          "name": "",
          "type": "uint256"
        }
      ],
      "payable": false,
      "stateMutability": "view",
      "type": "function"
    },
    {
      "constant": true,
      "inputs": [],
      "name": "tokenSold",
      "outputs": [
        {
          "internalType": "uint256",
          "name": "",
          "type": "uint256"
        }
      ],
      "payable": false,
      "stateMutability": "view",
      "type": "function"
    },
    {
      "constant": false,
      "inputs": [
        {
          "internalType": "uint256",
          "name": "_NoOfTokens",
          "type": "uint256"
        }
      ],
      "name": "Purchase",
      "outputs": [],
      "payable": true,
      "stateMutability": "payable",
      "type": "function"
    },
    {
      "constant": false,
      "inputs": [],
      "name": "end",
      "outputs": [],
      "payable": false,
      "stateMutability": "nonpayable",
      "type": "function"
    }
  ],
  "bytecode": "0x608060405234801561001057600080fd5b506040516108603803806108608339818101604052602081101561003357600080fd5b8101908080519060200190929190505050336000806101000a81548173ffffffffffffffffffffffffffffffffffffffff021916908373ffffffffffffffffffffffffffffffffffffffff16021790555080600160006101000a81548173ffffffffffffffffffffffffffffffffffffffff021916908373ffffffffffffffffffffffffffffffffffffffff160217905550655af3107a40006002819055505061077e806100e26000396000f3fe60806040526004361061004a5760003560e01c8063519ee19e1461004f5780637ff9b5961461007a578063e2aeb2ae146100a5578063efbe1c1c146100d3578063fc0c546a146100ea575b600080fd5b34801561005b57600080fd5b50610064610141565b6040518082815260200191505060405180910390f35b34801561008657600080fd5b5061008f610147565b6040518082815260200191505060405180910390f35b6100d1600480360360208110156100bb57600080fd5b810190808035906020019092919050505061014d565b005b3480156100df57600080fd5b506100e86104ca565b005b3480156100f657600080fd5b506100ff610723565b604051808273ffffffffffffffffffffffffffffffffffffffff1673ffffffffffffffffffffffffffffffffffffffff16815260200191505060405180910390f35b60035481565b60025481565b600160009054906101000a900473ffffffffffffffffffffffffffffffffffffffff1673ffffffffffffffffffffffffffffffffffffffff1663d05c78da826002546040518363ffffffff1660e01b8152600401808381526020018281526020019250505060206040518083038186803b1580156101ca57600080fd5b505afa1580156101de573d6000803e3d6000fd5b505050506040513d60208110156101f457600080fd5b81019080805190602001909291905050503414610279576040517f08c379a00000000000000000000000000000000000000000000000000000000081526004018080602001828103825260098152602001807f535353535353535353000000000000000000000000000000000000000000000081525060200191505060405180910390fd5b80600160009054906101000a900473ffffffffffffffffffffffffffffffffffffffff1673ffffffffffffffffffffffffffffffffffffffff166370a08231306040518263ffffffff1660e01b8152600401808273ffffffffffffffffffffffffffffffffffffffff1673ffffffffffffffffffffffffffffffffffffffff16815260200191505060206040518083038186803b15801561031957600080fd5b505afa15801561032d573d6000803e3d6000fd5b505050506040513d602081101561034357600080fd5b8101908080519060200190929190505050101561035f57600080fd5b600160009054906101000a900473ffffffffffffffffffffffffffffffffffffffff1673ffffffffffffffffffffffffffffffffffffffff1663a9059cbb33836040518363ffffffff1660e01b8152600401808373ffffffffffffffffffffffffffffffffffffffff1673ffffffffffffffffffffffffffffffffffffffff16815260200182815260200192505050602060405180830381600087803b15801561040857600080fd5b505af115801561041c573d6000803e3d6000fd5b505050506040513d602081101561043257600080fd5b810190808051906020019092919050505061044c57600080fd5b806003600082825401925050819055507f5e5e995ce3133561afceaa51a9a154d5db228cd7525d34df5185582c18d3df093382604051808373ffffffffffffffffffffffffffffffffffffffff1673ffffffffffffffffffffffffffffffffffffffff1681526020018281526020019250505060405180910390a150565b6000809054906101000a900473ffffffffffffffffffffffffffffffffffffffff1673ffffffffffffffffffffffffffffffffffffffff163373ffffffffffffffffffffffffffffffffffffffff161461052357600080fd5b600160009054906101000a900473ffffffffffffffffffffffffffffffffffffffff1673ffffffffffffffffffffffffffffffffffffffff1663a9059cbb6000809054906101000a900473ffffffffffffffffffffffffffffffffffffffff16600160009054906101000a900473ffffffffffffffffffffffffffffffffffffffff1673ffffffffffffffffffffffffffffffffffffffff166370a08231306040518263ffffffff1660e01b8152600401808273ffffffffffffffffffffffffffffffffffffffff1673ffffffffffffffffffffffffffffffffffffffff16815260200191505060206040518083038186803b15801561062257600080fd5b505afa158015610636573d6000803e3d6000fd5b505050506040513d602081101561064c57600080fd5b81019080805190602001909291905050506040518363ffffffff1660e01b8152600401808373ffffffffffffffffffffffffffffffffffffffff1673ffffffffffffffffffffffffffffffffffffffff16815260200182815260200192505050602060405180830381600087803b1580156106c657600080fd5b505af11580156106da573d6000803e3d6000fd5b505050506040513d60208110156106f057600080fd5b810190808051906020019092919050505061070a57600080fd5b3373ffffffffffffffffffffffffffffffffffffffff16ff5b600160009054906101000a900473ffffffffffffffffffffffffffffffffffffffff168156fea265627a7a723158200f8072be172d6adf1cf927a3606bf662d2de32d15da1567fc0a946c40aa8cf6b64736f6c63430005100032",
  "source": "//SPDX-License-Identifier: MIT\npragma solidity >=0.4.22 <0.9.0;\n\n\nimport \"./Alphacointract.sol\";\n\n\ncontract Ico {\n\taddress admin;\n\tAlphacointract public token;\n\tuint256 public tokenPrice;\n\tuint256 public tokenSold;\n\n\tevent Sell(address buyer,uint256 _amount);\n\n  \tconstructor(Alphacointract _token) public {\n  \t\tadmin = msg.sender;\n  \t\ttoken = _token;\n  \t\ttokenPrice = 100000000000000; //in wei (0.0001 eth)    \n  }\n\n  function Purchase(uint256 _NoOfTokens) public payable{\n  \trequire(msg.value ==  token.safeMul(_NoOfTokens,tokenPrice),\"SSSSSSSSS\");\n  \trequire(token.balanceOf(address(this)) >= _NoOfTokens);\n  \trequire (token.transfer(msg.sender,_NoOfTokens));\n  \t\n  \ttokenSold += _NoOfTokens;\n\n  \temit Sell(msg.sender,_NoOfTokens);\n\n  }\n\n  function end() public{\n  \trequire(msg.sender == admin);\n  \trequire (token.transfer(admin,token.balanceOf(address(this))));\n\n  \tselfdestruct(msg.sender);\n  }\n}\n",
  "sourcePath": "/home/garry/Desktop/BLOCK CHAIN PRACTICE/Alphacoin/contracts/Ico.sol",
  "compiler": {
    "name": "solc",
    "version": "0.5.16+commit.9c3226ce.Emscripten.clang"
  },
  "schemaVersion": "3.3.3",
  "updatedAt": "2021-05-04T13:53:30.446Z",
  "networkType": "ethereum",
  "devdoc": {
    "methods": {}
  },
  "userdoc": {
    "methods": {}
  }
}